{
  "contractName": "AgeContrat",
  "abi": [
    {
      "inputs": [],
      "stateMutability": "nonpayable",
      "type": "constructor"
    },
    {
      "inputs": [],
      "name": "age",
      "outputs": [
        {
          "internalType": "uint256",
          "name": "",
          "type": "uint256"
        }
      ],
      "stateMutability": "view",
      "type": "function"
    },
    {
      "inputs": [],
      "name": "owner",
      "outputs": [
        {
          "internalType": "address",
          "name": "",
          "type": "address"
        }
      ],
      "stateMutability": "view",
      "type": "function"
    },
    {
      "inputs": [
        {
          "internalType": "uint256",
          "name": "_age",
          "type": "uint256"
        }
      ],
      "name": "setAge",
      "outputs": [],
      "stateMutability": "nonpayable",
      "type": "function"
    },
    {
      "inputs": [
        {
          "internalType": "uint256",
          "name": "_code",
          "type": "uint256"
        }
      ],
      "name": "setVerificationCode",
      "outputs": [],
      "stateMutability": "nonpayable",
      "type": "function"
    },
    {
      "inputs": [
        {
          "internalType": "uint256",
          "name": "_code",
          "type": "uint256"
        }
      ],
      "name": "verifyCode",
      "outputs": [
        {
          "internalType": "bool",
          "name": "",
          "type": "bool"
        }
      ],
      "stateMutability": "view",
      "type": "function"
    },
    {
      "inputs": [],
      "name": "getAge",
      "outputs": [
        {
          "internalType": "uint256",
          "name": "",
          "type": "uint256"
        }
      ],
      "stateMutability": "view",
      "type": "function"
    }
  ],
  "bytecode": "0x608060405234801561001057600080fd5b50336000806101000a81548173ffffffffffffffffffffffffffffffffffffffff021916908373ffffffffffffffffffffffffffffffffffffffff16021790555061045d806100606000396000f3fe608060405234801561001057600080fd5b50600436106100625760003560e01c8063262a9dff146100675780636ecca5b7146100855780638da5cb5b146100a1578063967e6e65146100bf578063bc1b8498146100dd578063d5dcf1271461010d575b600080fd5b61006f610129565b60405161007c919061039c565b60405180910390f35b61009f600480360381019061009a91906102b0565b61012f565b005b6100a96101c7565b6040516100b69190610346565b60405180910390f35b6100c76101eb565b6040516100d4919061039c565b60405180910390f35b6100f760048036038101906100f291906102b0565b6101f5565b6040516101049190610361565b60405180910390f35b610127600480360381019061012291906102b0565b610203565b005b60015481565b60008054906101000a900473ffffffffffffffffffffffffffffffffffffffff1673ffffffffffffffffffffffffffffffffffffffff163373ffffffffffffffffffffffffffffffffffffffff16146101bd576040517f08c379a00000000000000000000000000000000000000000000000000000000081526004016101b49061037c565b60405180910390fd5b8060028190555050565b60008054906101000a900473ffffffffffffffffffffffffffffffffffffffff1681565b6000600154905090565b600060025482149050919050565b60008054906101000a900473ffffffffffffffffffffffffffffffffffffffff1673ffffffffffffffffffffffffffffffffffffffff163373ffffffffffffffffffffffffffffffffffffffff1614610291576040517f08c379a00000000000000000000000000000000000000000000000000000000081526004016102889061037c565b60405180910390fd5b8060018190555050565b6000813590506102aa81610410565b92915050565b6000602082840312156102c257600080fd5b60006102d08482850161029b565b91505092915050565b6102e2816103c8565b82525050565b6102f1816103da565b82525050565b6000610304600d836103b7565b91507f4e6f7420746865206f776e6572000000000000000000000000000000000000006000830152602082019050919050565b61034081610406565b82525050565b600060208201905061035b60008301846102d9565b92915050565b600060208201905061037660008301846102e8565b92915050565b60006020820190508181036000830152610395816102f7565b9050919050565b60006020820190506103b16000830184610337565b92915050565b600082825260208201905092915050565b60006103d3826103e6565b9050919050565b60008115159050919050565b600073ffffffffffffffffffffffffffffffffffffffff82169050919050565b6000819050919050565b61041981610406565b811461042457600080fd5b5056fea2646970667358221220019fc171348e7d052ff2d8284ee0bef85f07188c668baf204cee9b7f1be4369564736f6c63430008000033",
  "immutableReferences": {},
  "source": "// SPDX-License-Identifier: MIT\npragma solidity ^0.8.0;\n\ncontract AgeContrat {\n    address public owner;\n    uint256 public age;\n    uint256 private verificationCode;\n\n    modifier onlyOwner() {\n        require(msg.sender == owner, \"Not the owner\");\n        _;\n    }\n\n    constructor() {\n        owner = msg.sender;\n    }\n\n    function setAge(uint256 _age) external onlyOwner {\n        age = _age;\n    }\n\n    function setVerificationCode(uint256 _code) external onlyOwner {\n        verificationCode = _code;\n    }\n\n    function verifyCode(uint256 _code) external view returns (bool) {\n        return _code == verificationCode;\n    }\n    \n    function getAge() public view returns (uint256){\n     return age;\n    }\n}\n",
  "sourcePath": "/home/satge/ProjetIdentity/contracts/AgeContrat.sol",
  "compiler": {
    "name": "solc",
    "version": "0.8.0+commit.c7dfd78e.Emscripten.clang"
  },
  "schemaVersion": "3.4.16",
  "updatedAt": "2024-02-23T18:14:36.897Z",
  "devdoc": {
    "kind": "dev",
    "methods": {},
    "version": 1
  },
  "userdoc": {
    "kind": "user",
    "methods": {},
    "version": 1
  }
}